:100000000C94ED010C940C020C940C020C940C0258
:100010000C940C020C940C020C940C020C940C0228
:100020000C940C020C940C020C940C020C940C0218
:100030000C940C020C940C020C940C020C940C0208
:100040000C9413020C940C020C940C020C940C02F1
:100050000C940C020C940C020C940C020C940C02E8
:100060000C940C020C949A0E0C94DD0E0C940C0261
:100070000C940C020C940C020C940C020C940C02C8
:100080000C940C020C940C020C940C020C940C02B8
:100090000C940C020C940C020C940C020C940C02A8
:1000A0000C940C020C940C020C940C020C940C0298
:1000B0000C940C020C940C020C940C020C940C0288
:1000C0000C940C020C940C020C940C020C940C0278
:1000D0000C940C020C940C020C940C020C940C0268
:1000E0000C940C024307E2072506D307C807C30791
:1000F000250625062506250625062506B907250613
:1001000025069C0787077C07250625062506250664
:100110002506250625062506250625067607250635
:1001200068075D07510725062506250625062506CD
:100130002506250625062506250625062506250667
:100140002506250625062506250625062506250657
:100150002506250625062506250625062506250647
:10016000250625061E07250625062506250625063D
:100170002506250625062506250625062506250627
:100180002506250625061807250625062506250623
:100190002506250625062506250625062C0700002A
:1001A000000000000000000000000000000000004F
:1001B000000000000000000000000000000000003F
:1001C00000003C000000000000000000000041565C
:1001D0005220414443253264202534642025642E76
:1001E000253364560D0A00253564206D7365630D53
:1001F0000A000A00202573000A43414E20696E74EC
:100200006572616374696F6E20636F6E736F6C6586
:100210000A00496E7075742070696E732025632022
:1002200025632025630D0A00526573657420746F81
:100230006F6B202564206C6F6F70732C20256430E9
:1002400020757365632C20256420746F202564203D
:100250000D0A0052657365742073746174757320A0
:10026000776173202532780D0A005265736574201A
:10027000746F6F6B20256420757365630D0A0052DF
:100280006573657420737461727465642061742091
:100290002564206D7365630D0A0041565220414468
:1002A00043253264202534642025642E253364568A
:1002B0000A00415652205663632025642E2533647C
:1002C000562028253564290A0053797374656D20FA
:1002D000766F6C74616765730A000200FBE00000D2
:1002E00084000000FC00000000000080000000000E
:1002F00000000000000000000220FFE00000FE00FF
:10030000000002900000000000070260240A0020A4
:10031000253278002043414E207265676973746509
:100320007273202532783A0020205478302053749C
:1003300061747573206973202532780A006D6370CB
:10034000323531355F706F6C6C28292053746174BD
:100350007573206973202532780A002043414E20AE
:1003600052782025337820253278202532782025B0
:1003700032782E0A002043414E20547820253378CD
:1003800020253278202532782025327820253278B1
:100390002025327820253278202532782E0A004D0B
:1003A000435032353135207265736574206661695A
:1003B0006C65642E0A003E20000A00436F6D6D617B
:1003C0006E64206E6F74207265636F676E697A6504
:1003D000643A20272573270A000011241FBECFEF9F
:1003E000D1E2DEBFCDBF13E0A0E0B2E0EEE4F3E285
:1003F00000E00BBF02C007900D92A835B107D9F7F6
:1004000015E0A8E5B3E001C01D92A438B107E1F7FB
:100410000E9446030C94A5110C9400008091DF0308
:100420009091E00308951F920F920FB60F9211243E
:100430008F939F9380914F049091500401969093D5
:10044000500480934F0480914F0490915004892B65
:1004500049F48091DD039091DE0301969093DE03D1
:100460008093DD039F918F910F900FBE0F901F908F
:100470001895F89420914F04309150047894C90154
:1004800008959FEF95B987EE84B990937E0090937D
:100490007D00E4E6F0E080818C7F808382E08EB98D
:1004A0008DB9109285001092840080E496E09093BC
:1004B0008700809386001092800089E180938100FC
:1004C00080E280936F0010927200E1EAF0E0108207
:1004D0008FEF9FEF9093A5008093A4001092A90046
:1004E0001092A80080E48093A00089E0808380E7D8
:1004F0008093020188E280930101089508959C0190
:10050000289882E08EBD0DB407FEFDCF8EB58FE03A
:100510008EBD0DB407FEFDCF8EB58FEF2F3F380790
:1005200041F0822F8EBD0DB407FEFDCF8EB5289A07
:10053000089580E2F7CF8FEF9FEF0E947F0208952A
:100540008093650308950F931F93CF93DF93C0E0CB
:10055000D0E00EEC11E0FE01EE0FFF1FE55DFB4F5A
:10056000808191819C01220F331F280F391F220F98
:10057000331F220F331F280F391F329522952F70FA
:1005800023273F702327808191814DB75EB74A5062
:1005900050400FB6F8945EBF0FBE4DBFEDB7FEB72B
:1005A0003196ADB7BEB712961C930E931197D383B5
:1005B000C28395838483C90168EE73E00E944B1166
:1005C00077836683C90168EE73E00E944B119187BF
:1005D00080870E940E1021964DB75EB7465F5F4F31
:1005E0000FB6F8945EBF0FBE4DBFC031D10509F004
:1005F000B2CFDF91CF911F910F910895F894209180
:100600004F0430915004789400D000D087EE91E0F0
:10061000EDB7FEB792838183348323830E940E104B
:100620000F900F900F900F9008950F931F93CF93FB
:10063000DF9380918F02909190020097B9F0C7E903
:10064000D2E004EF11E000D000D0EDB7FEB7128386
:100650000183948383830E940E1088819981289658
:100660000F900F900F900F90009769F700D082EFD6
:1006700091E0EDB7FEB7928381830E940E100F9038
:100680000F90DF91CF911F910F9108950E94410229
:100690000E945C0F00D088EF91E0EDB7FEB7928327
:1006A00081830E940E1084B1876084B9289A80E506
:1006B0008CBD81E08DBDF89480914F0490915004E1
:1006C000789490935604809355040F900F900EC029
:1006D000F89420914F0430915004789480915504FF
:1006E000909156048217930708F440C00E94230F8C
:1006F00097FD0CC00E94E10CF89480914F049091FA
:100700005004789490932804809327040E9405094C
:10071000409158035091590341155105C9F2F8947D
:1007200080914F049091500478942091F00330917F
:10073000F103821B930B8417950750F28091F70306
:100740009091F80302969093F8038093F7030E9428
:100750005308F89480914F049091500478948851F4
:100760009C4F9093F1038093F003B2CFF894809163
:100770004F0490915004789488519C4F9093560464
:1007800080935504B3CF0E945308089524E020932A
:100790008B0420E120938C0422E420938D04909319
:1007A0008E0480938F0480E294E09093940480936D
:1007B00093040E94410A08952FEF8F3F920721F082
:1007C000807F0E94C10908958FEF0E94C10908959A
:1007D0008FEF0E94C10908950E94890983FD2EC0F0
:1007E00060E370E084FD2EC040E350E085FD2EC044
:1007F00020E330E08DB79EB708970FB6F8949EBF00
:100800000FBE8DBFEDB7FEB7319682E192E0ADB776
:10081000BEB712969C938E93119773836283558310
:100820004483378326830E940E108DB79EB70896A7
:100830000FB6F8949EBF0FBE8DBF089561E370E0C0
:1008400084FFD2CF41E350E085FFD2CF21E330E0F7
:10085000D1CF8295807F8C600E949D0908950E946F
:100860009F0C08950F931F93CF93DF93F8940091FB
:100870004F0410915004789400D000D08FE792E09C
:10088000ADB7BEB712969C938E93119714961C9396
:100890000E9313970E940E100F900F900F900F90D1
:1008A0000E949F0CF89420914F043091500478944A
:1008B00000D000D08AE692E0EDB7FEB79283818344
:1008C000201B310B348323830E940E10C0E0D0E044
:1008D0000F900F900F900F9090EA8FEF28989EBD89
:1008E0000DB407FEFDCF2EB58EBD2EB50DB407FE9F
:1008F000FDCF3EB5289A2F3F09F03BC02196BFE0BF
:10090000C03ADB0759F7F89420914F043091500416
:100910007894F89440914F04509150047894EDB736
:10092000FEB73A970FB6F894FEBF0FBEEDBF3196F3
:1009300088E292E0ADB7BEB712969C938E93119762
:10094000D383C283201B310B358324831783068313
:10095000518740870E940E10EDB7FEB73A960FB64A
:10096000F894FEBF0FBEEDBFDF91CF911F910F91A5
:10097000089500D000D0EDB7FEB7319683E592E040
:10098000ADB7BEB712969C938E93119722831382B4
:100990000E940E100F900F900F900F90B4CF0E94F6
:1009A0003204089587E880937A0010927B0080E4F7
:1009B00080937C0080917C0080937C0087EC809306
:1009C0007A0080917A0086FDFCCF8091780090912A
:1009D00079000895982F883074F410927B009F71ED
:1009E000906490937C0080917C0080937C0087ECE5
:1009F00080937A00089588E080937B0097709064DC
:100A000090937C0080917C0080937C0087EC8093A5
:100A10007A00089580917A0086FDFCCF20917800BD
:100A200030917900C9010895582F40E120E030E06D
:100A3000782F7F717064F8E0682F67706064E7EC6E
:100A40005830FCF0F0937B0060937C0080917C0038
:100A500080937C00E0937A00A89580917A0086FDCF
:100A6000FCCF8091780090917900280F391F415078
:100A700039F7329522952F7023273F702327C9011C
:100A8000089510927B0070937C0080917C0080938D
:100A90007C00E0CFAF92BF92CF92DF92EF92FF92B5
:100AA0000F931F93CF93DF938EEF0E9414057C0169
:100AB00000D089EC92E0ADB7BEB712969C938E93AE
:100AC00011970E940E109701442737FD4095542F2F
:100AD00068E87AE281E190E00E945F1189019A0161
:100AE00000D000D000D0EDB7FEB7319682EB92E097
:100AF000ADB7BEB712969C938E931197C80168EE5E
:100B000073E00E944B1173836283C80168EE73E047
:100B10000E944B1195838483F782E6820E940E1017
:100B2000CEEFDFEFEDB7FEB738960FB6F894FEBF05
:100B30000FBEEDBF4AE9C42E42E0D42E38E0A32E0A
:100B400027ECB22E8C2FC8300CF466C0A0927B002C
:100B50008770806480937C0080917C0080937C000F
:100B6000B0927A00A89580917A0086FDFCCFE09043
:100B70007800F0907900B701882777FD8095982F4D
:100B800021E732E040E050E00E942C118B019C01F3
:100B900097E035952795179507959A95D1F78DB7D5
:100BA0009EB70A970FB6F8949EBF0FBE8DBFEDB7E4
:100BB000FEB73196ADB7BEB71296DC92CE921197C2
:100BC000D383C283F582E482C80168EE73E00E9499
:100BD0004B1177836683C80168EE73E00E944B1166
:100BE000918780870E940E102196EDB7FEB73A9646
:100BF0000FB6F894FEBF0FBEEDBFC031D10509F0AE
:100C0000A1CFDF91CF911F910F91FF90EF90DF90D7
:100C1000CF90BF90AF90089510927B008F71806449
:100C200080937C0080917C0080937C0099CF209100
:100C30008C04233009F472C02430B0F0293009F458
:100C40005DC0203A59F130918D0481E180938F0489
:100C500030938E0420938D048FE780938C0484E07E
:100C600080938B0480E008952130C1F1223059F740
:100C700030918D04332309F05BC080E480938E04AF
:100C800010928F04109290041092910486E032E04A
:100C900080938B04306430938C04089530918D04DC
:100CA000363009F4BEC1373008F076C0333009F46D
:100CB000A7C0343008F094C1332309F075C08CE329
:100CC00080938E048FE180938F048FEF8093900444
:100CD0008EEF8093910486E030EADACF30918D0474
:100CE000E32FF0E0ED35F10508F0AFCFEE58FF4F00
:100CF000EE0FFF1F0590F491E02D099430918D04C3
:100D00003323F9F480E480938E0410928F041092C0
:100D100090041092910486E039E0BACF91E090936C
:100D20008C0480E280938D0490938E0482E0089579
:100D3000323009F08ACF10928E0410928F0484E032
:100D4000A7CF323009F081CF89E480938D043093AE
:100D50008E048FEF80936B0381E080936A0380930E
:100D60008F0480910A038093900480910B038093F9
:100D7000910480910C03809392048DE093E0909312
:100D80006903809368038EE090E0909367038093FB
:100D9000660334E184E17CCF3D30D9F03E3008F089
:100DA00030C13C3009F448C1E32FE051E03108F094
:100DB0004CCFF0E0EE0FFF1FE55DFB4F808191818E
:100DC00090938E048081918180938F0484E030EA37
:100DD0005FCF80918B04843009F037CF40918E042F
:100DE000403608F032CF942F80E020918F04820F9C
:100DF000911D909352048093510484E030EA48CFCF
:100E000080918B04843009F020CF80918E048093F0
:100E1000EC0380918F048093ED0380914F049091B7
:100E200050049093EF038093EE0384E030EA30CFD8
:100E300088E080938E0483E031E02ACF8AE08093BB
:100E40008E0410928F0480E88093900480E1809358
:100E5000910486E031E01CCF8091370490913804F2
:100E6000885E934008F019C180913704909138044E
:100E7000825B9F4F969587959695879580938E0474
:100E800083E031E005CF88EB80938E0493E190936B
:100E90008F0480E8809390049093910486E031E081
:100EA000F7CE10928E0410928F041092900481E07D
:100EB0008093910486E031E0EBCE9091870480919D
:100EC000880480938E0490938F0484E031E0E0CE18
:100ED00010928E048091890490918A04892B19F0D4
:100EE00081E080938E0482E031E0D2CE89E080936D
:100EF0008E0483E031E0CCCE8091F7039091F8032B
:100F00009595879580938E0483E031E0C1CE8091E2
:100F100061039091620324E630E0AC01429FC0017E
:100F2000439F900D529F900D112490938E048093B7
:100F30008F0484E031E0ACCE809131049091320492
:100F4000885E934008F081CE2091310430913204C4
:100F50008DE790E0AC01249FC001259F900D349F48
:100F6000900D1124895E984E90938E0483E031E0B9
:100F70008FCE0E940E0290938E0480938F04309146
:100F80008C0484E085CE8091FD039091FE0370CFA8
:100F900080910002909101029695879580938E042E
:100FA00083E031E075CE8091020290910302892B9B
:100FB00009F071C082E080938E0410928F0484E067
:100FC00031E066CE80915A03811181E880938E04CE
:100FD00010928F04109290041092910486E058CEE3
:100FE000343009F444C0353009F0DECE9091D90395
:100FF0008091DA0380938E0490938F0484E030EA2A
:1010000047CE3E30E9F13F3009F0CECE9091510409
:101010008091520480938E0490938F0484E030EA90
:1010200037CE90915B0380915C0380938E04909304
:101030008F0484E030EA2CCE80918B04843009F058
:1010400004CE40918E04403608F0FFCD942F80E00E
:1010500020918F04820F911D90938A0480938904BC
:101060009093D8038093D70384E030EA11CE809127
:101070005A0380938E0410928F0484E030EA08CEE5
:101080009091D7038091D80380938E0490938F041E
:1010900084E030EAFDCD88E08ECF88E280938E0434
:1010A00083E031E0F5CD80916403882309F408954D
:1010B00087E080938B0480E180938C0483E28093AB
:1010C0008D048091F7039091F8039595879580930F
:1010D0008E048091790480938F040E940E02880F01
:1010E000892F881F990B9195809390042091FD037F
:1010F0003091FE038DE790E0AC01249FC001259F55
:10110000900D349F900D1124895E984E9093910418
:1011100080915A038093920480E094E89093940421
:10112000809393040E94410A089580918B04873034
:10113000B0F0282F30E0C901807F9070C09711F087
:1011400080E00895C9018F709070009719F10197A0
:1011500059F1109267031092660380E008950E948F
:101160001706982F882361F3883058F080E1809328
:101170008B0490938C0480E09DEF90937003809398
:101180006F0380E09DEF90939404809393040E94FA
:10119000410A089580918C0480936C0380918D04A2
:1011A00080936B0380E008958FEF80936B0380E062
:1011B0000895109288041092870480914F049091B2
:1011C00050049093960480939504109264031092B7
:1011D00063030E949F0C882329F481E080936303BA
:1011E00080E0089581E0089580916303882351F0A1
:1011F0000E94080B982F882319F481E080936403E0
:10120000892F08950E94D908F3CF1F93809164031A
:10121000882329F40E94F408882309F03FC00E9423
:10122000F20B209166033091670321153105B1F16E
:1012300080916B038F3F91F180916A038F70806280
:1012400080938B04E0916803F09169032150304052
:10125000ACE8B4E010E0C901422F12161306C4F541
:1012600081918D931F5F215030401730A1F7F0938B
:101270006903E0936803409366039093670380E0FB
:101280009DEF90939404809393040E94410A8823D5
:1012900039F480916A038F5F80936A031F910895E8
:1012A000812F90E02091680330916903281B390B4E
:1012B000309369032093680320916603309167039C
:1012C000820F931F90936703809366031F91089585
:1012D000F0936903E09368033093670320936603F8
:1012E000CECF8EBD0DB407FEFDCF8EB508952898E4
:1012F00020E030E0FC01E20FF31FE491EEBD0DB4FD
:1013000007FEFDCF4EB52F5F3F4F621799F7289A22
:101310000895289883E08EBD0DB407FEFDCF8EB5ED
:101320008DE08EBD0DB407FEFDCF8EB51EBC0DB495
:1013300007FEFDCF8EB5289A0895982F289882E051
:101340008EBD0DB407FEFDCF8EB58CE08EBD0DB405
:1013500007FEFDCF8EB59EBD0DB407FEFDCF8EB549
:10136000289A0895289880EA8EBD0DB407FEFDCF17
:101370008EB58FEF8EBD0DB407FEFDCF8EB5289ACA
:101380000895CF92DF92EF92FF920F931F93DF9316
:10139000CF93CDB7DEB760970FB6F894DEBF0FBE20
:1013A000CDBF482F289887FD6AC083E08EBD0DB45D
:1013B00007FEFDCF8EB54EBD0DB407FEFDCF8EB539
:1013C0007E010894E11CF11C87019E012F5E3F4FB6
:1013D0001EBC0DB407FEFDCF8EB5D8018D938D01D7
:1013E000A217B307A9F7289A00D000D084E193E0B0
:1013F000EDB7FEB792838183842F992787FD90955F
:10140000948383830E940E100F900F900F900F9083
:101410008FE0C82E83E0D82E00D000D0EDB7FEB705
:101420003196ADB7BEB71296DC92CE921197D70126
:101430008D917D01828313820E940E100F900F9078
:101440000F900F900E151F0539F700D08DE093E037
:10145000EDB7FEB7928381830E940E100F900F901C
:1014600060960FB6F894DEBF0FBECDBFCF91DF916F
:101470001F910F91FF90EF90DF90CF90089580EB38
:1014800095CF4091930450919404A7E9B4E020E0F3
:10149000E3E08C9183FD09C011968D919C91129788
:1014A0008417950709F4B0C0E22F2F5F13962330FD
:1014B00081F7E330E9F120E090E428988E2F880F3F
:1014C000890F8EBD0DB407FEFDCF8EB5222391F19D
:1014D0002E2F30E0EBE8F4E080818EBD0DB407FEE6
:1014E000FDCF8EB5319684E0E339F807A9F7289A45
:1014F000289881E090E0022E02C0880F991F0A947C
:10150000E2F780588EBD0DB407FEFDCF8EB5F90110
:10151000EE0FFF1FE20FF31FE956FB4F808188603B
:101520008083289A80916503843050F580E0089587
:1015300081E008955EBD0DB407FEFDCF8EB54EBDB2
:101540000DB407FEFDCF8EB51EBC0DB407FEFDCF5A
:101550008EB51EBC0DB407FEFDCF8EB588E08EBDE6
:101560000DB407FEFDCF8EB52E2F30E0F901EE0F42
:10157000FF1FE20FF31FE956FB4F52834183AACFAF
:10158000ADB7BEB752970FB6F894BEBF0FBEADBF92
:10159000EDB7FEB7319685E793E012969C938E9354
:1015A000119756954795529542954F7045275F7014
:1015B00045275383428380918B04848315828091D5
:1015C0008C048683178280918D0480871186809198
:1015D0008E048287138680918F048487158680917C
:1015E00090048687178680919104808B118A0E94CF
:1015F0000E1080E02DB73EB72E5E3F4F0FB6F89429
:101600003EBF0FBE2DBF0895E22F21E091E455CFDC
:1016100090E030EA2FEF28983EBD0DB407FEFDCFD5
:101620008EB52EBD0DB407FEFDCF8EB5289A8F3F27
:1016300079F49F5F983279F700D08FE993E0EDB7A6
:10164000FEB7928381830E940E100F900F9003C00B
:1016500081E08093640328988AED92E0FC01019672
:10166000E491EEBD0DB407FEFDCF2EB5F2E0883F4C
:101670009F07A1F7289A28988AE093E0FC01019639
:10168000E491EEBD0DB407FEFDCF2EB523E08D3005
:101690009207A1F7289A289888EF92E0FC0101961A
:1016A000E491EEBD0DB407FEFDCF2EB5E3E08A3028
:1016B0009E07A1F7289A80E00895DF93CF9300D08A
:1016C00000D00F92CDB7DEB7982F8091650383309D
:1016D00008F464C02898992309F482C084E98EBD77
:1016E0000DB407FEFDCF8EB5FE0131969E012A5F37
:1016F0003F4F1EBC0DB407FEFDCF8EB58193E217A0
:10170000F307B9F789819A819093940480939304A5
:10171000EBE8F4E01EBC0DB407FEFDCF8EB581935F
:1017200084E0E339F807B1F7289AADB7BEB71A9746
:101730000FB6F894BEBF0FBEADBFEDB7FEB7319682
:101740008BE593E012969C938E9311972A812295B4
:101750002695277030E0898190E0880F991F880FC7
:10176000991F880F991F282B392B3383228380914F
:101770008B048483158280918C04868317828091E8
:101780008D04808711860E940E108DB79EB70A9631
:101790000FB6F8949EBF0FBE8DBF16C02898992330
:1017A000E9F086E98EBD0DB407FEFDCF8EB5EBE8FE
:1017B000F4E01EBC0DB407FEFDCF8EB5819394E01E
:1017C000E339F907B1F7289A0E9495080F900F9016
:1017D0000F900F900F90CF91DF91089582E9E2CFA3
:1017E00080E97DCF0F931F93289880EA8EBD0DB4BA
:1017F00007FEFDCF8EB58FEF8EBD0DB407FEFDCF7A
:101800001EB5289A112309F453C01F3F09F453C091
:1018100080916503823028F08091710384310CF44B
:101820004FC0012F00FD6DC001FD60C002FF19C057
:10183000289883E08EBD0DB407FEFDCF8EB580E302
:101840008EBD0DB407FEFDCF8EB51EBC0DB407FED8
:10185000FDCF1EB5289A80916503882309F05CC0EE
:10186000012F03FD47C090E005FF06C080919A0458
:10187000877F80939A04986017FD47C09923C1F031
:10188000289885E08EBD0DB407FEFDCF8EB58CE2A5
:101890008EBD0DB407FEFDCF8EB59EBD0DB407FE07
:1018A000FDCF8EB51EBC0DB407FEFDCF8EB5289AB8
:1018B0001F910F910895109264031F910F91089545
:1018C0008F5F80937103012F20E000D000D08DE363
:1018D00093E0EDB7FEB792838183138324830E9444
:1018E0000E100F900F900F900F909CCF81E00E94F0
:1018F0005D0B9CCF80919704877F8093970494E041
:10190000B3CF80E00E945D0B8FCF80919D04877FD5
:1019100080939D049061B2CF012F20E000D000D0D1
:1019200088E293E0EDB7FEB792838183138324832B
:101930000E940E100F900F900F900F9092CF289A48
:1019400084B1876084B980E58CBD81E08DBD289825
:1019500080EC8EBD9FEF02C0915019F00DB407FED0
:10196000FBCF289A8EB581E08093630389E0E7E995
:10197000F4E0DF011D928A95E9F7892F0895FC01B3
:101980004081842F80538A30C8F420E030E0C901C0
:10199000880F991F880F991F880F991F220F331FD7
:1019A000280F391F240F311D2053304031964081BC
:1019B000842F80538A3058F3C901089520E030E025
:1019C000FBCFAF92BF92CF92DF92EF92FF920F9335
:1019D0001F93CF93DF93182F8D3009F440C000D0B0
:1019E00000D0EDB7FEB731968EE193E0ADB7BEB74C
:1019F00012969C938E931197128313820E940E105D
:101A00000F900F900F900F901830E1F080917203BB
:101A10008F3468F4E82FF0E0ED58FC4F1083E82F86
:101A2000EF5FE0937203F0E0ED58FC4F1082DF911E
:101A3000CF911F910F91FF90EF90DF90CF90BF90CB
:101A4000AF900895E0917203EE2309F4A5C0E15030
:101A5000E0937203F0E0ED58FC4F1082E8CF00D025
:101A600089EB93E0EDB7FEB7928381830E940E105D
:101A7000809172030F900F90882309F47DC0482F46
:101A800050E041505040141615060CF042C163E777
:101A9000A62E63E0B62E80917303803209F445C10F
:101AA00090E007C0F901ED58FC4F8081803209F4C5
:101AB000B1C09F5F292F30E0241735079CF3CFEF8B
:101AC000DFEF909372036091150270911602611519
:101AD000710509F46DC010E0EE24FF2412C01F5FF1
:101AE000E12EFF24F701EE0FFF1FEE0FFF1FEE0F99
:101AF000FF1FEB5EFD4F608171816115710509F477
:101B000057C093E7C92E93E0D92EC6010E949C11BD
:101B1000009729F7FFEFCF3FDF0709F4CCC0F701AB
:101B2000EE0FFF1FEE0FFF1FEE0FFF1FE75EFD4FD3
:101B300080819181C817D90708F48FC0F701EE0F93
:101B4000FF1FEE0FFF1FEE0FFF1FEB5EFD4F8681A5
:101B500097818C179D0708F480C0EE0CFF1CEE0CDB
:101B6000FF1CEE0CFF1C87E192E0E80EF91ED70186
:101B7000ED91FC91D183C083109272031092730394
:101B800000D086EB93E0EDB7FEB7928381830E948D
:101B90000E100F900F904BCF00D081E293E0CDB7A5
:101BA000DEB79A8389830E940E100F900F903FCF6B
:101BB00060918F02709190026115710509F46AC0FD
:101BC000FF2400E010E012C0F3940F2D10E0F801A4
:101BD000EE0FFF1FEE0FFF1FEE0FFF1FE157FD4F30
:101BE000608171816115710509F454C083E793E048
:101BF0000E949C11009741F7000F111F000F111F49
:101C0000000F111F0F561D4FD801ED91FC91CE0111
:101C10000995B2CF492F1082F901EC58FC4F208171
:101C2000822F80538A3008F07CC0C0E0D0E0CE0123
:101C3000880F991F880F991F880F991FCC0FDD1FE0
:101C4000C80FD91FC20FD11DE09731962081822F76
:101C500080538A3060F3942F34CF00D000D000D06E
:101C6000EDB7FEB731968EE293E0ADB7BEB71296F0
:101C70009C938E931197D383C283B582A4820E94D2
:101C80000E10CDB7DEB726960FB6F894DEBF0FBEA6
:101C9000CDBF72CF00D000D08BEB93E0CDB7DEB7D5
:101CA0009A838983BC82AB820E940E100F900F90A2
:101CB0000F900F9061CF00D000D000D0ADB7BEB76D
:101CC000119683E293E0CDB7DEB79A8389831396AA
:101CD000DC92CE921297EE0CFF1CEE0CFF1CEE0C69
:101CE000FF1CE7E1F2E0EE0EFF1EE701E881F9815B
:101CF0008081918115969C938E9314970E940E106B
:101D0000EDB7FEB736960FB6F894FEBF0FBEEDBF27
:101D100033CFCFEFDFEF90E073E7A72E73E0B72E5E
:101D2000D0CE942FC0E0D0E0CCCE40E0F50120E052
:101D300030E071CF1F920F920FB60F920BB60F9239
:101D400011242F938F939F93AF93BF93EF93FF93A0
:101D50002091C600909130059F5F903108F090E08F
:101D600080913105891741F0E0913005F0E0E056AF
:101D7000FB4F2083909330058091C7039091C80357
:101D8000A091C903B091CA030196A11DB11D809312
:101D9000C7039093C803A093C903B093CA03FF91EC
:101DA000EF91BF91AF919F918F912F910F900BBEAB
:101DB0000F900FBE0F901F9018951F920F920FB6A5
:101DC0000F920BB60F9211248F939F93AF93BF93F3
:101DD000EF93FF939091330580913205891779F144
:101DE000E92FF0E0E056FB4F80898093C600E92F91
:101DF000EF5FE7FD22C0E09333058091C30390912C
:101E0000C403A091C503B091C6030196A11DB11DE5
:101E10008093C3039093C403A093C503B093C603F8
:101E2000FF91EF91BF91AF919F918F910F900BBE5A
:101E30000F900FBE0F901F901895E0E0DCCF88E95F
:101E40008093C100DACF20913105809130052817A9
:101E500089F0E22FF0E0E056FB4F8081E22FEF5F48
:101E6000E03130F4E0933105E82FF0E0CF01089540
:101E7000E0E0F8CFEFEFFFEFCF010895282F90912A
:101E800032059F5F97FD11C080913305981791F03F
:101E9000E0913205F0E0E056FB4F208B9093320545
:101EA00088EB8093C10080E0089590E08091330535
:101EB000981771F78FEF08951092C7031092C80317
:101EC0001092C9031092CA038091C7039091C8036E
:101ED000A091C903B091CA038093C3039093C40334
:101EE000A093C503B093C603A3E3B5E010923305F6
:101EF00080913305FD01329780838081FD018293BB
:101F0000808113978C9387E68093C4001092C5005C
:101F100086E08093C20088E98093C10008951F93F2
:101F2000CF93DF931092D603662381F16150E5EDE4
:101F3000F3E049E050E0461B510945535C4F0CC0AB
:101F4000295C20833197E417F50781F092958295FB
:101F50008F7089279F708927282F2F702A3080F74C
:101F6000205D20833197E417F50781F7EF01219673
:101F70001881812F0E943E0F8823D9F7219618815E
:101F80001123B9F7DF91CF911F910895C6EDD3E0EA
:101F9000EFCFCF92DF92EF92FF920F931F93CF93E9
:101FA000DF937B018C016A011092D603C5EDD3E06B
:101FB000C801B7012AE030E040E050E00E945F1124
:101FC000605D68832197C801B7012AE030E040E0F6
:101FD00050E00E945F11C901DA017C018D01089473
:101FE000C108D1081C141D041CF31E141F04100684
:101FF0001106F4F221961881812F0E943E0F88234A
:10200000D9F783E0C63DD807A8F3DF91CF911F91A0
:102010000F91FF90EF90DF90CF9008956F927F9295
:102020008F929F92AF92BF92CF92DF92EF92FF92E8
:102030000F931F93DF93CF93CDB7DEB7B1E1EB2EB4
:10204000F12CEC0EFD1EF701619071907F0100E014
:10205000F3011491112301F10894611C711C0023F8
:1020600009F446C01C3609F485C01D3608F057C077
:10207000133609F4C4C0143609F480C01835E9F0E9
:10208000812F0E943E0F8823D9F7670100E0760177
:10209000F3011491112301F780E090E0CF91DF91DB
:1020A0001F910F91FF90EF90DF90CF90BF90AF9076
:1020B0009F908F907F906F90089580E30E943E0FD5
:1020C0008823D9F7812F0E943E0F8823D9F7043047
:1020D00009F4AEC032E0C32ED12CCE0CDF1CF701C8
:1020E00080819181602F0E948F0F00E07601D0CF18
:1020F000153289F11A3041F0812F0E943E0F88235A
:10210000D9F767017601C4CF8DE00E943E0F882386
:1021100099F38DE00E943E0F8823B1F7EDCF15377C
:1021200009F455C0183749F2133709F0A9CFA2E0D6
:10213000CA2ED12CCE0CDF1CF701E080F180F70114
:1021400001917F01002309F4A2CF802F0E943E0F4E
:102150008823D9F7F4CFF301049100530A3020F01B
:10216000670101E0760194CF0894611C711C67013E
:1021700076018ECF670104E076018ACF043009F43E
:102180004CC062E0C62ED12CCE0CDF1CF701808142
:1021900091814C01AA2497FCA094BA2CB7FC09C0E9
:1021A000C501B401402F50E00E94C90F00E0760144
:1021B0006FCF8DE20E943E0F8823D9F7B094A09490
:1021C00090948094811C911CA11CB11CE9CF043017
:1021D000C1F1E2E0CE2ED12CCE0CDF1CF7018081C4
:1021E00091819C01442737FD4095542FCA01B901C4
:1021F000402F50E00E94C90F00E0760149CF52E025
:10220000C52ED12CCE0CDF1CF7011081812F0E942E
:102210003E0F8823D9F700E03ACF74E0C72ED12CC7
:10222000CE0CDF1CF70180809180A280B380B6CFF6
:1022300044E0C42ED12CCE0CDF1CF70180819181AB
:1022400051CFF4E0CF2ED12CCE0CDF1CF701208132
:10225000318142815381CACF629FD001739FF001C7
:10226000829FE00DF11D649FE00DF11D929FF00D26
:10227000839FF00D749FF00D659FF00D9927729F5D
:10228000B00DE11DF91F639FB00DE11DF91FBD01E8
:10229000CF0111240895AA1BBB1B51E107C0AA1F3F
:1022A000BB1FA617B70710F0A61BB70B881F991FF7
:1022B0005A95A9F780959095BC01CD01089597FB9B
:1022C000092E05260ED057FD04D014D00AD0001CCC
:1022D00038F450954095309521953F4F4F4F5F4FC3
:1022E0000895F6F790958095709561957F4F8F4F83
:1022F0009F4F0895A1E21A2EAA1BBB1BFD010DC022
:10230000AA1FBB1FEE1FFF1FA217B307E407F507A5
:1023100020F0A21BB30BE40BF50B661F771F881F81
:10232000991F1A9469F760957095809590959B0117
:10233000AC01BD01CF010895FB01DC018D9101903D
:0E23400080190110D9F3990B0895F894FFCF7E
:10234E002A0064006870006D6973630070776D0019
:10235E007172706D00040258030000102707024DC1
:10236E00040000FF030C0200020000E8031002DF6D
:10237E00030000FFFF000000000000000068656120
:10238E007274626561740068656C7000696E697460
:10239E00006C6564730070696E730072656773001C
:1023AE0072706D00736C6565700073746174757313
:1023BE000072657365740073746F700074696D6577
:1023CE0000766572626F736500766F6C7473003D94
:1023DE0002C3030000000047021503000000004C7A
:1023EE00022F0400000000510229040000000056D4
:1023FE0002EC03000000005B02DC03000000006042
:10240E0002C6030000000064027F02000000006AA2
:10241E0002E803000000007102CF04000000007704
:10242E00029B02000000007C02FE02000000008100
:10243E0002A00200000A008902A3020000FFFF00B2
:10244E0000000000000000E803875742414141317F
:10245E0033303548323332303132340000002563A8
:10246E0000200025732069732025642E0A00566112
:10247E006C7565202564206F7574206F66207261FF
:10248E006E676520666F72207661726961626C6537
:08249E0020272573272E0A00F8
:00000001FF
