:100000000C9438020C9457020C9457020C9457022B
:100010000C9457020C9457020C9457020C945702FC
:100020000C9457020C9457020C9457020C945702EC
:100030000C9457020C9457020C9457020C945702DC
:100040000C9457020C9457020C9457020C945702CC
:100050000C9457020C9457020C9457020C945702BC
:100060000C9457020C9485120C94C8120C945702ED
:100070000C9457020C9457020C9457020C9457029C
:100080000C9457020C9457020C9457020C941406CB
:100090000C9457020C9457020C9457020C9457027C
:1000A0000C9457020C9457020C9457020C9457026C
:1000B0000C9457020C9457020C945E150C94570242
:1000C0000C9457020C9457020C94AA150C945702E6
:1000D0000C9457020C9457020C9457020C9457023C
:1000E0000C945702DC077B08BE066C0861085C08AC
:1000F000BE06BE06BE06BE06BE06BE065208BE064A
:10010000BE06350820081508BE06BE06BE06BE0699
:10011000BE06BE06BE06BE06BE06BE060F08BE066C
:100120000108F607EA07BE06BE06BE06BE06BE0604
:10013000BE06BE06BE06BE06BE06BE06BE06BE069F
:10014000BE06BE06BE06BE06BE06BE06BE06BE068F
:10015000BE06BE06BE06BE06BE06BE06BE06BE067F
:10016000BE06BE06B707BE06BE06BE06BE06BE0675
:10017000BE06BE06BE06BE06BE06BE06BE06BE065F
:10018000BE06BE06BE06B107BE06BE06BE06BE065B
:10019000BE06BE06BE06BE06BE06BE06C507AB123E
:1001A0000200A000E100200364000500000006003A
:1001B000000000000000E8030A0005000000000045
:1001C00000008200000000000000000000004C6FF2
:1001D0006F707320666F72203130306D5365633AF3
:1001E0002025640D0A0056565656526F6F6D2069D1
:1001F0006E737472756D656E7420636F6E74726F5A
:100200006C6C6572206669726D776172652041560B
:10021000522D302E30310D0A00496E76616C6964C2
:1002200020454550524F4D20636F6E74656E747358
:100230002C207573696E672064656661756C742027
:10024000706172616D65746572730A004669726DE2
:100250007761726520696E7465677269747920636D
:100260006865636B206E6F7420617661696C616292
:100270006C65202534780A000200FBE00000840051
:100280000000FC00000000000080000000000000F2
:100290000000000000000220FFE00000FE0000005F
:1002A00002900000000000070260240A00202532AE
:1002B00078002043414E20726567697374657273DC
:1002C000202532783A00202054783020537461740D
:1002D0007573206973202532780A006D637032359A
:1002E00031355F706F6C6C2829205374617475739D
:1002F000206973202532780A002043414E2052782D
:100300002025337820253278202532782025327830
:100310002E0A002043414E20547820253378202592
:100320003278202532782025327820253278202511
:10033000327820253278202532782E0A004D43501D
:1003400032353135207265736574206661696C657C
:10035000642E0A0041565220414443253264202530
:1003600034642025642E253364560A0041565220F9
:100370005663632025642E25336456202825356472
:10038000290A0053797374656D20766F6C74616708
:1003900065730A00557074696D6520256420736566
:1003A000636F6E64730D0A00415652202564252543
:1003B0002069646C650D0A004661756C74732025B4
:1003C000347820496E737472756D656E7420646143
:1003D000746120303A20256420313A2025640D0ACA
:1003E000003E20000A00436F6D6D616E64206E6FE9
:1003F00074207265636F676E697A65643A20272599
:1004000073270A0053504920414443204368616EDA
:100410006E656C2025642025347820302E303030F5
:10042000560A0053504920414443204368616E6E90
:10043000656C2025642025347820302E30303056ED
:100440000A0053504920414443204368616E6E6561
:100450006C2025642025347820302E303030560A28
:10046000004144432053504920696E69740A0000DA
:1004700011241FBECFEFD1E2DEBFCDBF14E0A0E05C
:10048000B2E0E4ECFFE200E00BBF02C007900D9287
:10049000A63BB107D9F717E0A6EBB4E001C01D9267
:1004A000AC32B107E1F70E9483040C94E0170C947E
:1004B0000000DC01009701F120E030E04FEF5FEF3A
:1004C000FB01E20FF31F80814827042E4295407FF5
:1004D0004025052E542F42954F70042646955427EB
:1004E0004527440F440F440F40252F5F3F4F2A17E5
:1004F0003B0730F3CA0108954FEF5FEFFBCFA8959C
:1005000088E10FB6F89480936000109260000FBEEF
:100510000895A8952CE088E190E00FB6F894A8958E
:10052000809360000FBE209360000895F89420919E
:10053000B8043091B9047894C9010895F8942091D1
:10054000B8043091B9047894281B390BC901089577
:10055000FC01F8946091B8047091B9047894F8940F
:100560008091B8049091B9047894861B970B8E17EC
:100570009F07B0F420E030E040E050E02F5F3F4FB5
:100580004F4F5F4FF8948091B8049091B9047894DC
:10059000861B970B8E179F0788F3B901CA01089530
:1005A00020E030E040E050E0F8CF80EE85B984B93B
:1005B0008AE38EB98DB9E4E6F0E080818C7F808398
:1005C000E5E6F0E080818C7F80838FEF80937E0072
:1005D00080937D00109285001092840089E090E461
:1005E00090938700809386001092800089E1809329
:1005F000810080E280936F000895CF93DF9361E7DD
:1006000070E0EB01188241E950E080E1FA0180835B
:100610001092950010929400E8E9F0E011821082A7
:10062000AAE9B0E02FEF31E011963C932E938AEEC9
:1006300080939000309397002093960081E1EA0127
:1006400088831182108284E690E090939D008093CD
:100650009C0011963C932E9381E0FB0180831092C5
:100660007200E1EAF0E010828FEF9FEF9093A50017
:100670008093A4001092A9001092A80080E48093B7
:10068000A00089E0808380E78093020188E2809364
:100690000101DF91CF91089500D000D08CE492E069
:1006A000EDB7FEB79283818382E492E494838383DF
:1006B0000E9467110F900F900F900F900895EF9286
:1006C000FF920F931F93CF93DF93E7EFF5E02FEFA8
:1006D0003FEF81912827022E2295207F2025032E8F
:1006E000322F22952F700226269532272327220F9C
:1006F000220F220F202586E0E532F80751F73183DB
:100700002083C0E0D0E098E1E92E08E110E08CE021
:10071000F82EA8950FB6F894E09260001092600051
:100720000FBE87EF95E0BE0140E350E00E94C8177E
:10073000A8950FB6F894A895009360000FBEF092AC
:100740006000E096C03CD10521F7DF91CF911F9169
:100750000F91FF90EF900895AF92BF92DF92EF92CA
:10076000FF920F931F93DF93CF93CDB7DEB7E09740
:100770000FB6F894DEBF0FBECDBFDD2400E010E061
:100780005E010894A11CB11C6FE2E62EF12CEC0E68
:10079000FD1EDD0CC501B80140E350E00E94B81712
:1007A000005D1F4F89819A818B5A924109F445C09F
:1007B000003C110571F7DD2009F491C000E010E064
:1007C00048E1A42E38E1E32EF12C2CE0B22EDD0C12
:1007D000D4FE08C00039110501F1005D1F4FDD0C8A
:1007E000D4FCF8CFA8950FB6F894A09260001092B0
:1007F00060000FBE87EF95E0B80140E350E00E9433
:10080000C817A8950FB6F894A895E09260000FBE9F
:10081000B09260000039110501F7E0960FB6F89428
:10082000DEBF0FBECDBFCF91DF911F910F91FF9023
:10083000EF90DF90BF90AF900895F5012FEF3FEF5D
:1008400081912827022E2295207F2025032E322FEA
:1008500022952F700226269532272327220F220F5A
:10086000220F2025EE15FF0559F78FA598A98217AD
:10087000930709F09DCF81E0D82AA7EFB5E0F501F5
:1008800080E301900D928150E1F780910D069091E7
:100890000E06A0E0B0E05AE0880F991FAA1FBB1F08
:1008A0005A95D1F78093D2049093D304A093D404A3
:1008B000B093D504609115067091160680E090E023
:1008C0002EEF31E040E050E00E9423176093CE0409
:1008D0007093CF048093D0049093D10469CF00D05B
:1008E00089E192E0EDB7FEB7928381830E946711A0
:1008F0000F900F9087EF95E06EE971E040E350E0D4
:100900000E94A6178ACF0F931F93CF93DF930E9465
:10091000D5020E94471300D000D08CE492E0EDB7DE
:10092000FEB79283818382E492E4948383830E945E
:1009300067110F900F9086EE91E0EDB7FEB79283AE
:1009400081830E9467110F900F900E9472090E948C
:10095000AC038EEF0E949A0DC0E0D0E08C2F0E9475
:100960009A0DFE01EE0FFF1FDF01AF52BA4F119635
:100970009C938E93E155FA4F118210822196C031DB
:10098000D10561F70E94D00D0E94B416F8946091D1
:10099000B8047091B9047894F8948091B804909157
:1009A000B9047894861B970B8436910508F037C1FB
:1009B00020E030E040E050E02F5F3F4F4F4F5F4F6F
:1009C000F8948091B8049091B9047894861B970BA1
:1009D0008436910588F320939405309395054093D0
:1009E00096055093970500D000D000D08EEC91E092
:1009F000EDB7FEB792838183238334834583568387
:100A00000E946711A8952CE088E190E00FB6F89459
:100A1000A895809360000FBE209360008DB79EB7AD
:100A200006960FB6F8949EBF0FBE8DBF82E00E945F
:100A30009A0D9093F2058093F1058656904090931D
:100A4000AE058093AD050E94FD020E944D15A8954C
:100A50000E948D09F894C091B804D091B90478949B
:100A6000D0938205C0938105D093F605C093F50518
:100A70008E0100511742A8950E940E1397FD08C0E1
:100A80000E942F0FF8940091B8041091B904789443
:100A90000E949E094091090650910A064115510590
:100AA000D9F0F8948091B8049091B9047894209189
:100AB000810530918205821B930B8417950760F0A6
:100AC000F8948091B8049091B9047894801B910BAC
:100AD0008958934108F05CC0F8948091B8049091D3
:100AE000B90478948C1B9D0B8436910508F4C3CF10
:100AF000CC59DF4F80910202882309F447C085B1A9
:100B0000805885B98091020287FD70C080910202F1
:100B100085FF0EC08091DD049091DE04009709F0FE
:100B200074C0F894809102028F7D809302027894C1
:100B30004091090250910A024115510509F49BCFD9
:100B4000F8948091B8049091B90478942091F505B7
:100B50003091F605821B930B8417950708F48BCF11
:100B60000E94EC088091F5059091F605209109020C
:100B700030910A02820F931F9093F6058093F5053A
:100B8000A8950E940E1397FD83CF7ACF2F9AD0CFCE
:100B90000E94B90E809181059091820520910906ED
:100BA00030910A06820F931F9093820580938105EE
:100BB000F8942091B8043091B9047894821B930B77
:100BC000895F9A4250F0F8948091B8049091B904EA
:100BD00078949093820580938105F8940091B804ED
:100BE0001091B90478940151174276CF80919B05FA
:100BF00090919C0503970CF089CFF89480910202A4
:100C00008F7780930202789481CF8630910508F423
:100C10005F9801979093DE048093DD0489CF20E0F4
:100C200030E040E050E0D7CE1F920F920FB60F9207
:100C30000BB60F9211242F933F934F935F936F93B3
:100C40007F938F939F93AF93BF93CF93DF93EF9354
:100C5000FF938091E0048F5F8093E00480FD1EC0CD
:100C60008091DF048F5F8093DF04282F30E080FDC8
:100C70002AC080917800909179009093D605809356
:100C8000D5058091E1048F5F8093E104803110F0FD
:100C90001092E1048091E1040E94700DFF91EF91A8
:100CA000DF91CF91BF91AF919F918F917F916F9184
:100CB0005F914F913F912F910F900BBE0F900FBE00
:100CC0000F901F901895E091E104F0E0809178007A
:100CD00090917900EE0FFF1FDF01AF52BA4F1196CE
:100CE0009C938E93E155FA4F3183208382E00E94DA
:100CF000700D2091DF04822F867079F48091B80402
:100D00009091B90401969093B9048093B8048091AE
:100D1000B8049091B904892BC9F089B1C82FD0E0EB
:100D20006091830570918405C617D70709F4B6CF83
:100D3000CE018627972780FF04C06170822F0E9412
:100D4000E914D0938405C0938305A8CF8091BA0499
:100D50009091BB0401969093BB048093BA04DDCFBD
:100D600020912C06233009F472C02430B0F02930D1
:100D700009F45DC0203A59F130912D0681E180934C
:100D80002F0630932E0620932D068FE780932C0696
:100D900084E080932B0680E008952130C1F1223059
:100DA00059F730912D06332309F05BC080E480931E
:100DB0002E0610922F06109230061092310686E011
:100DC00032E080932B06306430932C0608953091E6
:100DD0002D06363009F4BEC1373008F076C0333006
:100DE00009F4A7C0343008F094C1332309F075C06A
:100DF0008CE380932E068FE180932F068FEF8093F4
:100E000030068EEF8093310686E030EADACF3091FB
:100E10002D06E32FF0E0ED35F10508F0AFCFEE58E9
:100E2000FF4FEE0FFF1F0590F491E02D09943091D4
:100E30002D063323F9F480E480932E0610922F06BA
:100E4000109230061092310686E039E0BACF91E078
:100E500090932C0680E280932D0690932E0682E0DC
:100E60000895323009F08ACF10922E0610922F0684
:100E700084E0A7CF323009F081CF89E480932D063A
:100E800030932E068FEF8093EA0481E08093E9048B
:100E900080932F0680910D028093300680910E0280
:100EA0008093310680910F028093320680E192E0B8
:100EB0009093E8048093E7048EE090E09093E6043A
:100EC0008093E50434E184E17CCF3D30D9F03E30BD
:100ED00008F030C13C3009F448C1E32FE051E03163
:100EE00008F04CCFF0E0EE0FFF1FEF52FA4F808179
:100EF000918190932E068081918180932F0684E0CA
:100F000030EA5FCF80912B06843009F037CF4091D3
:100F10002E06403608F032CF942F80E020912F0625
:100F2000820F911D909329078093280784E030EA6F
:100F300048CF80912B06843009F020CF80912E0677
:100F40008093900580912F06809391058091B8043D
:100F50009091B904909393058093920584E030EAD0
:100F600030CF88E080932E0683E031E02ACF8AE0FC
:100F700080932E0610922F0680E88093300680E141
:100F80008093310686E031E01CCF8091DD059091A1
:100F9000DE05885E934008F019C18091DD059091CF
:100FA000DE05825B9F4F96958795969587958093F2
:100FB0002E0683E031E005CF88EB80932E0693E187
:100FC00090932F0680E8809330069093310686E058
:100FD00031E0F7CE10922E0610922F0610923006B6
:100FE00081E08093310686E031E0EBCE90912706D8
:100FF0008091280680932E0690932F0684E031E09E
:10100000E0CE10922E068091290690912A06892B17
:1010100019F081E080932E0682E031E0D2CE89E0A3
:1010200080932E0683E031E0CCCE80919B05909199
:101030009C059595879580932E0683E031E0C1CE7F
:101040008091C6049091C70424E630E0AC01429F31
:10105000C001439F900D529F900D112490932E0636
:1010600080932F0684E031E0ACCE8091D70590913B
:10107000D805885E934008F081CE2091D705309145
:10108000D8058DE790E0AC01249FC001259F900D0D
:10109000349F900D1124895E984E90932E0683E024
:1010A00031E08FCE0E94D91590932E0680932F06A3
:1010B00030912C0684E085CE8091A1059091A20507
:1010C00070CF809100029091010296958795809350
:1010D0002E0683E031E075CE8091BE049091BF046E
:1010E000892B09F071C082E080932E0610922F06A2
:1010F00084E031E066CE80910202811181E8809324
:101100002E0610922F06109230061092310686E0BD
:1011100058CE343009F444C0353009F0DECE909119
:10112000BC048091BD0480932E0690932F0684E02A
:1011300030EA47CE3E30E9F13F3009F0CECE909113
:1011400028078091290780932E0690932F0684E02C
:1011500030EA37CE909103028091040280932E06EC
:1011600090932F0684E030EA2CCE80912B068430B9
:1011700009F004CE40912E06403608F0FFCD942FA2
:1011800080E020912F06820F911D90932A06809374
:101190002906909325078093240784E030EA11CE36
:1011A0008091020280932E0610922F0684E030EA8E
:1011B00008CE909124078091250780932E06909366
:1011C0002F0684E030EAFDCD88E08ECF88E2809360
:1011D0002E0683E031E0F5CD8091E304882309F405
:1011E000089587E080932B0680E180932C0683E2AC
:1011F00080932D0680919B0590919C0595958795F0
:1012000080932E068091190680932F060E94D9158F
:10121000880F892F881F990B919580933006209114
:10122000A1053091A2058DE790E0AC01249FC0019B
:10123000259F900D349F900D1124895E984E9093B8
:101240003106809102028093320680E094E8909308
:101250003406809333060E94DA0A089580912B06A3
:101260008730B0F0282F30E0C901807F9070C097A0
:1012700011F080E00895C9018F709070009719F106
:10128000019759F11092E6041092E50480E0089568
:101290000E94B006982F882361F3883058F080E1CF
:1012A00080932B0690932C0680E09DEF9093EF04A3
:1012B0008093EE0480E09DEF909334068093330694
:1012C0000E94DA0A089580912C068093EB048091A5
:1012D0002D068093EA0480E008958FEF8093EA045E
:1012E00080E0089510922806109227068091B80495
:1012F0009091B90490933606809335061092E304DA
:101300001092E2040E94380D882329F481E0809332
:10131000E20480E0089581E008958091E20488234A
:1013200051F00E94A10B982F882319F481E080933B
:10133000E304892F08950E947209F3CF1F938091CF
:10134000E304882329F40E948D09882309F03FC013
:101350000E948B0C2091E5043091E60421153105A3
:10136000B1F18091EA048F3F91F18091E9048F708F
:10137000806280932B06E091E704F091E80421500D
:101380003040ACE2B6E010E0C901422F121613065D
:10139000C4F581918D931F5F215030401730A1F724
:1013A000F093E804E093E7044093E5049093E604A7
:1013B00080E09DEF90933406809333060E94DA0A12
:1013C000882339F48091E9048F5F8093E9041F91A9
:1013D0000895812F90E02091E7043091E804281BC4
:1013E000390B3093E8042093E7042091E504309111
:1013F000E604820F931F9093E6048093E5041F9107
:101400000895F093E804E093E7043093E604209312
:10141000E504CECF8EBD0DB407FEFDCF8EB5089589
:10142000289820E030E0FC01E20FF31FE491EEBDCC
:101430000DB407FEFDCF4EB52F5F3F4F621799F7F2
:10144000289A0895289883E08EBD0DB407FEFDCF3D
:101450008EB58DE08EBD0DB407FEFDCF8EB51EBCE2
:101460000DB407FEFDCF8EB5289A0895982F2898C1
:1014700082E08EBD0DB407FEFDCF8EB58CE08EBD33
:101480000DB407FEFDCF8EB59EBD0DB407FEFDCF9A
:101490008EB5289A0895289880EA8EBD0DB407FE6F
:1014A000FDCF8EB58FEF8EBD0DB407FEFDCF8EB58F
:1014B000289A0895CF92DF92EF92FF920F931F9395
:1014C000DF93CF93CDB7DEB760970FB6F894DEBF4A
:1014D0000FBECDBF482F289887FD6AC083E08EBD20
:1014E0000DB407FEFDCF8EB54EBD0DB407FEFDCF8A
:1014F0008EB57E010894E11CF11C87019E012F5ED0
:101500003F4F1EBC0DB407FEFDCF8EB5D8018D93A5
:101510008D01A217B307A9F7289A00D000D082EB5B
:1015200092E0EDB7FEB792838183842F992787FDE0
:101530009095948383830E9467110F900F900F9072
:101540000F908DEAC82E82E0D82E00D000D0EDB7E3
:10155000FEB73196ADB7BEB71296DC92CE92119718
:10156000D7018D917D01828313820E9467110F90B4
:101570000F900F900F900E151F0539F700D08BEAD2
:1015800092E0EDB7FEB7928381830E9467110F90BE
:101590000F9060960FB6F894DEBF0FBECDBFCF910F
:1015A000DF911F910F91FF90EF90DF90CF90089502
:1015B00080EB95CF4091330650913406A7E3B6E017
:1015C00020E0E3E08C9183FD09C011968D919C9100
:1015D00012978417950709F4B0C0E22F2F5F139676
:1015E000233081F7E330E9F120E090E428988E2F52
:1015F000880F890F8EBD0DB407FEFDCF8EB5222357
:1016000091F12E2F30E0EBE2F6E080818EBD0DB43B
:1016100007FEFDCF8EB5319686E0E333F807A9F7D4
:10162000289A289881E090E0022E02C0880F991F26
:101630000A94E2F780588EBD0DB407FEFDCF8EB53B
:10164000F901EE0FFF1FE20FF31FE95CF94F8081F4
:1016500088608083289A8091E404843050F580E08B
:10166000089581E008955EBD0DB407FEFDCF8EB5EF
:101670004EBD0DB407FEFDCF8EB51EBC0DB407FEEA
:10168000FDCF8EB51EBC0DB407FEFDCF8EB588E034
:101690008EBD0DB407FEFDCF8EB52E2F30E0F901C3
:1016A000EE0FFF1FE20FF31FE95CF94F52834183F6
:1016B000AACFADB7BEB752970FB6F894BEBF0FBE54
:1016C000ADBFEDB7FEB7319683E193E012969C93E0
:1016D0008E93119756954795529542954F70452791
:1016E0005F7045275383428380912B068483158244
:1016F00080912C068683178280912D068087118623
:1017000080912E068287138680912F068487158606
:10171000809130068687178680913106808B118AEA
:101720000E94671180E02DB73EB72E5E3F4F0FB687
:10173000F8943EBF0FBE2DBF0895E22F21E091E443
:1017400055CF90E030EA2FEF28983EBD0DB407FE4C
:10175000FDCF8EB52EBD0DB407FEFDCF8EB5289AF8
:101760008F3F79F49F5F983279F700D08DE393E053
:10177000EDB7FEB7928381830E9467110F900F909F
:1017800003C081E08093E304289888E792E0FC019D
:101790000196E491EEBD0DB407FEFDCF2EB5F2E04B
:1017A00086399F07A1F7289A289888EA92E0FC01D9
:1017B0000196E491EEBD0DB407FEFDCF2EB522E0FB
:1017C0008B3A9207A1F7289A289886E992E0FC01C3
:1017D0000196E491EEBD0DB407FEFDCF2EB5E2E01B
:1017E000883A9E07A1F7289A80E00895DF93CF9367
:1017F00000D000D00F92CDB7DEB7982F8091E404CF
:10180000833008F464C02898992309F482C084E9DD
:101810008EBD0DB407FEFDCF8EB5FE0131969E0143
:101820002A5F3F4F1EBC0DB407FEFDCF8EB58193DE
:10183000E217F307B9F789819A8190933406809370
:101840003306EBE2F6E01EBC0DB407FEFDCF8EB50D
:10185000819386E0E333F807B1F7289AADB7BEB7B6
:101860001A970FB6F894BEBF0FBEADBFEDB7FEB767
:10187000319689EF92E012969C938E9311972A816C
:1018800022952695277030E0898190E0880F991F76
:10189000880F991F880F991F282B392B3383228398
:1018A00080912B068483158280912C068683178273
:1018B00080912D06808711860E9467118DB79EB793
:1018C0000A960FB6F8949EBF0FBE8DBF16C028981B
:1018D0009923E9F086E98EBD0DB407FEFDCF8EB5E4
:1018E000EBE2F6E01EBC0DB407FEFDCF8EB5819392
:1018F00096E0E333F907B1F7289A0E942E090F907A
:101900000F900F900F900F90CF91DF91089582E983
:10191000E2CF80E97DCF0F931F93289880EA8EBD98
:101920000DB407FEFDCF8EB58FEF8EBD0DB407FE53
:10193000FDCF1EB5289A112309F453C01F3F09F4A7
:1019400053C08091E404823028F08091F004843107
:101950000CF44FC0012F00FD6DC001FD60C002FFFF
:1019600019C0289883E08EBD0DB407FEFDCF8EB55B
:1019700080E38EBD0DB407FEFDCF8EB51EBC0DB449
:1019800007FEFDCF1EB5289A8091E404882309F054
:101990005CC0012F03FD47C090E005FF06C08091A9
:1019A0003A06877F80933A06986017FD47C09923CF
:1019B000C1F0289885E08EBD0DB407FEFDCF8EB531
:1019C0008CE28EBD0DB407FEFDCF8EB59EBD0DB46D
:1019D00007FEFDCF8EB51EBC0DB407FEFDCF8EB544
:1019E000289A1F910F9108951092E3041F910F916F
:1019F00008958F5F8093F004012F20E000D000D085
:101A00008BED92E0EDB7FEB792838183138324833D
:101A10000E9467110F900F900F900F909CCF81E064
:101A20000E94F60B9CCF80913706877F8093370604
:101A300094E0B3CF80E00E94F60B8FCF80913D06FB
:101A4000877F80933D069061B2CF012F20E000D0C8
:101A500000D086EC92E0EDB7FEB7928381831383CA
:101A600024830E9467110F900F900F900F9092CFD8
:101A7000289A84B1876084B980E58CBD81E08DBDF2
:101A8000289880EC8EBD9FEF02C0915019F00DB4E4
:101A900007FEFBCF289A8EB581E08093E20489E0AF
:101AA000E7E3F6E0DF011D928A95E9F7892F0895B3
:101AB00087E880937A0010927B0080E480937C001A
:101AC00080917C0080937C0087EC80937A008091E9
:101AD0007A0086FDFCCF809178009091790008957E
:101AE000982F883074F410927B009F7190649093CB
:101AF0007C0080917C0080937C0087EC80937A004E
:101B0000089588E080937B009770906490937C00A8
:101B100080917C0080937C0087EC80937A0008950C
:101B200080917A0086FDFCCF209178003091790079
:101B3000C9010895582F40E120E030E0782F7F71EF
:101B40007064F8E0682F67706064E7EC5830FCF070
:101B5000F0937B0060937C0080917C0080937C00FC
:101B6000E0937A00A89580917A0086FDFCCF809161
:101B7000780090917900280F391F415039F732953C
:101B800022952F7023273F702327C90108951092B3
:101B90007B0070937C0080917C0080937C00E0CF80
:101BA000AF92BF92CF92DF92EF92FF920F931F936B
:101BB000CF93DF938EEF0E949A0D7C0100D083E8D3
:101BC00093E0ADB7BEB712969C938E9311970E9487
:101BD00067119701442737FD4095542F68E87AE252
:101BE00081E190E00E948B1789019A0100D000D01A
:101BF00000D0EDB7FEB731968CE693E0ADB7BEB737
:101C000012969C938E931197C80168EE73E00E9420
:101C1000421773836283C80168EE73E00E94421723
:101C200095838483F782E6820E946711CEEFDFEF0F
:101C3000EDB7FEB738960FB6F894FEBF0FBEEDBFF6
:101C400044E5C42E43E0D42E38E0A32E27ECB22E78
:101C50008C2FC8300CF466C0A0927B008770806423
:101C600080937C0080917C0080937C00B0927A000D
:101C7000A89580917A0086FDFCCFE0907800F090E6
:101C80007900B701882777FD8095982F21E732E00A
:101C900040E050E00E9423178B019C0197E03595AE
:101CA0002795179507959A95D1F78DB79EB70A97FF
:101CB0000FB6F8949EBF0FBE8DBFEDB7FEB731963D
:101CC000ADB7BEB71296DC92CE921197D383C28382
:101CD000F582E482C80168EE73E00E9442177783C0
:101CE0006683C80168EE73E00E944217918780877F
:101CF0000E9467112196EDB7FEB73A960FB6F89499
:101D0000FEBF0FBEEDBFC031D10509F0A1CFDF91FD
:101D1000CF911F910F91FF90EF90DF90CF90BF90E8
:101D2000AF90089510927B008F71806480937C0047
:101D300080917C0080937C0099CF0E94D00D089503
:101D40008091B8049091B90400D000D024E933E028
:101D5000EDB7FEB73283218368EE73E00E9442172D
:101D6000748363830E9467110F900F900F900F9000
:101D70000895409102022091D1053091D20500D002
:101D800000D000D0EDB7FEB7319688EB93E0ADB749
:101D9000BEB712969C938E9311974283138235831C
:101DA00024830E9467118DB79EB706960FB6F894EC
:101DB0009EBF0FBE8DBF08950E948902FFCF0F9373
:101DC0001F9384E690E00E94A80200D000D00DB7D7
:101DD0001EB70F5F1F4F28EA33E0EDB7FEB732831F
:101DE000218324E630E040E050E00E942317209158
:101DF00094053091950540919605509197050E9464
:101E00006917F801338322830E9467110F900F90A6
:101E10000F900F901F910F910895FC014081842F26
:101E200080538A30C8F420E030E0C901880F991F40
:101E3000880F991F880F991F220F331F280F391FF2
:101E4000240F311D2053304031964081842F805320
:101E50008A3058F3C901089520E030E0FBCFAF92FB
:101E6000BF92CF92DF92EF92FF920F931F93CF9387
:101E7000DF93182F8D3009F440C000D000D0EDB7AB
:101E8000FEB731968FE394E0ADB7BEB712969C9340
:101E90008E931197128313820E9467110F900F90F7
:101EA0000F900F901830E1F08091F1048F3468F4B6
:101EB000E82FF0E0EE50FB4F1083E82FEF5FE09348
:101EC000F104F0E0EE50FB4F1082DF91CF911F91B3
:101ED0000F91FF90EF90DF90CF90BF90AF9008955B
:101EE000E091F104EE2309F4A5C0E150E093F10480
:101EF000F0E0EE50FB4F1082E8CF00D084EE93E08C
:101F0000EDB7FEB7928381830E9467118091F1043F
:101F10000F900F90882309F47DC0482F50E0415066
:101F20005040141615060CF042C162EFA62E64E074
:101F3000B62E8091F204803209F445C190E007C0CA
:101F4000F901EE50FB4F8081803209F4B1C09F5FF0
:101F5000292F30E0241735079CF3CFEFDFEF909364
:101F6000F10460916D0370916E036115710509F4C0
:101F70006DC010E0EE24FF2412C01F5FE12EFF248D
:101F8000F701EE0FFF1FEE0FFF1FEE0FFF1FE359CC
:101F9000FC4F608171816115710509F457C092EFA2
:101FA000C92E94E0D92EC6010E94AF17009729F7D9
:101FB000FFEFCF3FDF0709F4CCC0F701EE0FFF1FA3
:101FC000EE0FFF1FEE0FFF1FEF58FC4F8081918136
:101FD000C817D90708F48FC0F701EE0FFF1FEE0FE7
:101FE000FF1FEE0FFF1FE359FC4F868197818C176F
:101FF0009D0708F480C0EE0CFF1CEE0CFF1CEE0CDD
:10200000FF1C8FE693E0E80EF91ED701ED91FC91DD
:10201000D183C0831092F1041092F20400D081EEBB
:1020200093E0EDB7FEB7928381830E9467110F9012
:102030000F904BCF00D082E494E0CDB7DEB79A8307
:1020400089830E9467110F900F903FCF6091170412
:10205000709118046115710509F46AC0FF2400E04D
:1020600010E012C0F3940F2D10E0F801EE0FFF1FE7
:10207000EE0FFF1FEE0FFF1FE95EFB4F60817181C6
:102080006115710509F454C082EF94E00E94AF1706
:10209000009741F7000F111F000F111F000F111FB4
:1020A000075E1B4FD801ED91FC91CE010995B2CF8F
:1020B000492F1082F901ED50FB4F2081822F805370
:1020C0008A3008F07CC0C0E0D0E0CE01880F991FB4
:1020D000880F991F880F991FCC0FDD1FC80FD91FBC
:1020E000C20FD11DE09731962081822F80538A3014
:1020F00060F3942F34CF00D000D000D0EDB7FEB7FE
:1021000031968FE494E0ADB7BEB712969C938E9350
:102110001197D383C283B582A4820E946711CDB781
:10212000DEB726960FB6F894DEBF0FBECDBF72CFD6
:1021300000D000D086EE93E0CDB7DEB79A838983D6
:10214000BC82AB820E9467110F900F900F900F908E
:1021500061CF00D000D000D0ADB7BEB7119684E4F7
:1021600094E0CDB7DEB79A8389831396DC92CE9242
:102170001297EE0CFF1CEE0CFF1CEE0CFF1CEFE6A2
:10218000F3E0EE0EFF1EE701E881F9818081918185
:1021900015969C938E9314970E946711EDB7FEB726
:1021A00036960FB6F894FEBF0FBEEDBF33CFCFEF1C
:1021B000DFEF90E072EFA72E74E0B72ED0CE942F11
:1021C000C0E0D0E0CCCE40E0F50120E030E071CFBF
:1021D0001F93CF93DF9310924D05662381F16150D9
:1021E000ECE4F5E049E050E0461B51094E5B5A4FE4
:1021F0000CC0295C20833197E417F50781F0929594
:1022000082958F7089279F708927282F2F702A30F9
:1022100080F7205D20833197E417F50781F7EF0100
:1022200021961881812F0E9429138823D9F721969E
:1022300018811123B9F7DF91CF911F910895CDE453
:10224000D5E0EFCFCF92DF92EF92FF920F931F93E3
:10225000CF93DF937B018C016A0110924D05CCE492
:10226000D5E0C801B7012AE030E040E050E00E942C
:102270008B17605D68832197C801B7012AE030E0C1
:1022800040E050E00E948B17C901DA017C018D010A
:102290000894C108D1081C141D041CF31E141F044B
:1022A00010061106F4F221961881812F0E9429133D
:1022B0008823D9F785E0CD34D807A8F3DF91CF91F3
:1022C0001F910F91FF90EF90DF90CF9008956F9244
:1022D0007F928F929F92AF92BF92CF92DF92EF92B6
:1022E000FF920F931F93DF93CF93CDB7DEB7B1E18A
:1022F000EB2EF12CEC0EFD1EF701619071907F0129
:1023000000E0F3011491112301F10894611C711C88
:10231000002309F446C01C3609F485C01D3608F0B8
:1023200057C0133609F4C4C0143609F480C01835F8
:10233000E9F0812F0E9429138823D9F7670100E073
:102340007601F3011491112301F780E090E0CF9121
:10235000DF911F910F91FF90EF90DF90CF90BF9092
:10236000AF909F908F907F906F90089580E30E9430
:1023700029138823D9F7812F0E9429138823D9F79D
:10238000043009F4AEC032E0C32ED12CCE0CDF1CD9
:10239000F70180819181602F0E94E81000E07601B2
:1023A000D0CF153289F11A3041F0812F0E942913C4
:1023B0008823D9F767017601C4CF8DE00E942913E5
:1023C000882399F38DE00E9429138823B1F7EDCF7C
:1023D000153709F455C0183749F2133709F0A9CF5A
:1023E000A2E0CA2ED12CCE0CDF1CF701E080F180D8
:1023F000F70101917F01002309F4A2CF802F0E94F1
:1024000029138823D9F7F4CFF301049100530A303C
:1024100020F0670101E0760194CF0894611C711CE3
:10242000670176018ECF670104E076018ACF043020
:1024300009F44CC062E0C62ED12CCE0CDF1CF70193
:10244000808191814C01AA2497FCA094BA2CB7FCFE
:1024500009C0C501B401402F50E00E94221100E0E4
:1024600076016FCF8DE20E9429138823D9F7B094AB
:10247000A09490948094811C911CA11CB11CE9CF64
:102480000430C1F1E2E0CE2ED12CCE0CDF1CF701DE
:10249000808191819C01442737FD4095542FCA01CA
:1024A000B901402F50E00E94221100E0760149CF8F
:1024B00052E0C52ED12CCE0CDF1CF7011081812FEC
:1024C0000E9429138823D9F700E03ACF74E0C72E81
:1024D000D12CCE0CDF1CF70180809180A280B380CC
:1024E000B6CF44E0C42ED12CCE0CDF1CF701808186
:1024F000918151CFF4E0CF2ED12CCE0CDF1CF7010F
:102500002081318142815381CACF1F920F920FB631
:102510000F920BB60F9211242F938F939F93AF932B
:10252000BF93EF93FF932091C6009091D0069F5FD9
:10253000903108F090E08091D106891741F0E09148
:10254000D006F0E0E05CF94F20839093D0068091B4
:10255000520590915305A0915405B09155050196EF
:10256000A11DB11D8093520590935305A09354056E
:10257000B0935505FF91EF91BF91AF919F918F91CE
:102580002F910F900BBE0F900FBE0F901F901895BC
:102590001F920F920FB60F920BB60F9211248F93CA
:1025A0009F93AF93BF93EF93FF939091D306809146
:1025B000D206891779F1E92FF0E0E05CF94F8089C4
:1025C0008093C600E92FEF5FE7FD22C0E093D306BA
:1025D00080914E0590914F05A0915005B091510505
:1025E0000196A11DB11D80934E0590934F05A093B8
:1025F0005005B0935105FF91EF91BF91AF919F911D
:102600008F910F900BBE0F900FBE0F901F901895DB
:10261000E0E0DCCF88E98093C100DACF2091D106D9
:102620008091D006281789F0E22FF0E0E05CF94FA6
:102630008081E22FEF5FE03130F4E093D106E82FA4
:10264000F0E0CF010895E0E0F8CFEFEFFFEFCF012A
:102650000895282F9091D2069F5F97FD11C0809119
:10266000D306981791F0E091D206F0E0E05CF94FC4
:10267000208B9093D20688EB8093C10080E0089570
:1026800090E08091D306981771F78FEF089510921C
:1026900052051092530510925405109255058091E1
:1026A000520590915305A0915405B0915505809322
:1026B0004E0590934F05A0935005B0935105A3ED9F
:1026C000B6E01092D3068091D306FD013297808345
:1026D0008081FD018293808113978C9387E680939C
:1026E000C4001092C50086E08093C20088E9809300
:1026F000C1000895982F289881E08EBD0DB407FE83
:10270000FDCF8EB59295907F90689EBD0DB407FE6B
:10271000FDCF2EB58FEF8EBD0DB407FEFDCF8EB56C
:1027200030E023703070322F2227289A90E0282B37
:10273000392BC9010895880F880F880F806C28985D
:102740008EBD0DB407FEFDCF2EB58FEF8EBD0DB43F
:1027500007FEFDCF8EB530E021703070322F22277A
:10276000289A90E0282B392BC90108958861289870
:102770008EBD0DB407FEFDCF8EB58FEF8EBD0DB4AF
:1027800007FEFDCF2EB58FEF8EBD0DB407FEFDCF3A
:102790008EB530E02F773070322F2227289A90E0C4
:1027A000282B392BC9010895CF92DF92EF92FF9227
:1027B0000F931F93CF93DF9300D081E694E0ADB7E2
:1027C000BEB712969C938E9311970E94671184B1A5
:1027D000876084B981E58CBD81E08DBD81E090E0AA
:1027E0009093570580935605C0E0D0E00F900F906E
:1027F000B2E4CB2EB4E0DB2E8C2F0E947A137C0146
:10280000BC0180E090E021E732E040E050E00E942F
:1028100023178B019C01A7E0359527951795079500
:10282000AA95D1F7EDB7FEB73A970FB6F894FEBF69
:102830000FBEEDBF3196ADB7BEB71296DC92CE9209
:102840001197D383C283F582E482C80168EE73E0F6
:102850000E94421777836683C80168EE73E00E9486
:102860004217918780870E9467112196EDB7FEB7C6
:102870003A960FB6F894FEBF0FBEEDBFC830D10533
:1028800009F0BACFC0E0D0E0F3E2CF2EF4E0DF2EC3
:102890008C2F0E949B137C01BC0180E090E021E71B
:1028A00032E040E050E00E9423178B019C01E6E0FB
:1028B0003595279517950795EA95D1F78DB79EB76A
:1028C0000A970FB6F8949EBF0FBE8DBFEDB7FEB747
:1028D0003196ADB7BEB71296DC92CE921197D383E4
:1028E000C283F582E482C80168EE73E00E94421759
:1028F00077836683C80168EE73E00E944217918770
:1029000080870E9467112196EDB7FEB73A960FB601
:10291000F894FEBF0FBEEDBFC830D10509F0B8CFA7
:10292000C0E0D0E074E0C72E74E0D72E8C2F0E9458
:10293000B6137C01BC0180E090E021E732E040E08A
:1029400050E00E9423178B019C016BE03595279581
:10295000179507956A95D1F78DB79EB70A970FB669
:10296000F8949EBF0FBE8DBFEDB7FEB73196ADB7E1
:10297000BEB71296DC92CE921197D383C283F582B2
:10298000E482C80168EE73E00E9442177783668391
:10299000C80168EE73E00E944217918780870E9409
:1029A00067112196EDB7FEB73A960FB6F894FEBFC1
:1029B0000FBEEDBFC830D10509F0B8CF80E090E080
:1029C000DF91CF911F910F91FF90EF90DF90CF900B
:1029D00008951F93182F4091BA045091BB04609141
:1029E000B8047091B9042091B8043091B904809171
:1029F0006C0590916D05281B390B20323105A8F12B
:102A000020583E4308F43FC08091580590915905E5
:102A1000499758F5CA01A0E0B0E0AC01332722275E
:102A2000CB01A0E0B0E0282B392B4A2B5B2B809107
:102A30005A0590915B05A0915C05B0915D05281B3E
:102A4000390B4A0B5B0B213187E2380780E04807DE
:102A500080E05807E8F461E070E080E090E00E94D8
:102A6000691730935905209358058091B8049091C7
:102A7000B90490936D0580936C0510936E051092C8
:102A80006F051F9108958091B8049091B904EDCF1E
:102A90001092590510925805E8CF1092200182E853
:102AA0008093210183E080930B0110920A0181E25F
:102AB0008093730080E88093700508951F920F92B1
:102AC0000FB60F9211242F933F934F935F938F93E1
:102AD0009F93AF93BF93409126015091270120917E
:102AE000710530917205CA01821B930B9093D0053A
:102AF0008093CF058091700580939A054217530704
:102B000018F4815080939A051092700550937205C5
:102B10004093710580915E0590915F05A0916005DD
:102B2000B09161050196A11DB11D80935E05909342
:102B30005F05A0936005B0936105BF91AF919F9130
:102B40008F915F914F913F912F910F900FBE0F90FA
:102B50001F9018951F920F920FB60F9211248F930A
:102B60009F93AF93BF93809170058F5F80937005A3
:102B700087FF03C080E88093700580916205909183
:102B80006305A0916405B09165050196A11DB11D75
:102B90008093620590936305A0936405B0936505E7
:102BA000BF91AF919F918F910F900FBE0F901F908B
:102BB0001895EF92FF920F931F936091700567FD38
:102BC0004FC090919A05961708F43EC0F894292FAB
:102BD0008091CF059091D00578947C01022F10E070
:102BE0008091660590916705A0916805B09169058F
:102BF000E816F9060A071B07E9F08DE9E8168CE1EB
:102C0000F80680E0080780E0180790F160E078E3BC
:102C10008CE99CE1A80197010E94691730936B052C
:102C200020936A05E0926605F092670500936805B7
:102C30001093690520916A0530916B05C9011F91B8
:102C40000F91FF90EF9008958DE99CE170E00E9454
:102C500056179B01C9011F910F91FF90EF900895A6
:102C600020E030E0C9011F910F91FF90EF9008958F
:102C70008FEF9FEF90936B0580936A05D3CFAF9250
:102C8000BF92CF92DF92EF92FF920F931F934091EA
:102C9000D1055091D2059A01220F331FC901880F27
:102CA000991F880F991F880F991F820F931F840FF8
:102CB000951F969587959695879596958795909368
:102CC0002B0780932A07A090C404B090C504A81ACB
:102CD000B90AB501882777FD8095982F2091730553
:102CE0003091740540917505509176050E94231727
:102CF0007B018C018DE7C82E85E0D82EF6017291FC
:102D000062916F01882777FD8095982F2091770534
:102D1000309178054091790550917A050E942317EA
:102D2000E60EF71E081F191F80917D0590917E0504
:102D3000A0917F05B09180058E0D9F1DA01FB11F32
:102D400080937D0590937E05A0937F05B0938005C9
:102D5000F601B182A0821F910F91FF90EF90DF905A
:102D6000CF90BF90AF9008952091F9053091FA056A
:102D7000442737FD4095542FEAE0220F331F441FAC
:102D8000551FEA95D1F7209373053093740540934E
:102D90007505509376058091FB059091FC05AA2757
:102DA00097FDA095BA2F821B930BA40BB50B8093B4
:102DB000770590937805A0937905B0937A051092E2
:102DC0007D0510927E0510927F05109280058DB7CB
:102DD0009EB70C970FB6F8949EBF0FBE8DBFEDB790
:102DE000FEB7319689E794E0ADB7BEB712969C93D3
:102DF0008E93119780918A0590918B05938382839E
:102E00008091FF05909100069583848380918805C9
:102E1000909189059783868380918C0590918D058B
:102E20009187808780918E0590918F059387828707
:102E30000E9467118DB79EB70C960FB6F8949EBF8F
:102E40000FBE8DBF0895629FD001739FF001829FD6
:102E5000E00DF11D649FE00DF11D929FF00D839F29
:102E6000F00D749FF00D659FF00D9927729FB00DC6
:102E7000E11DF91F639FB00DE11DF91FBD01CF01D9
:102E800011240895AA1BBB1B51E107C0AA1FBB1F39
:102E9000A617B70710F0A61BB70B881F991F5A95E6
:102EA000A9F780959095BC01CD01089597FB092E57
:102EB00007260AD077FD04D0E5DF06D000201AF4FB
:102EC000709561957F4F0895F6F7909581959F4F86
:102ED0000895A1E21A2EAA1BBB1BFD010DC0AA1F5B
:102EE000BB1FEE1FFF1FA217B307E407F50720F073
:102EF000A21BB30BE40BF50B661F771F881F991FEE
:102F00001A9469F760957095809590959B01AC0136
:102F1000BD01CF01089597FB092E05260ED057FD60
:102F200004D0D7DF0AD0001C38F450954095309576
:102F300021953F4F4F4F5F4F0895F6F7909580953D
:102F4000709561957F4F8F4F9F4F0895FB01DC0176
:102F500002C005900D9241505040D8F70895FB01F2
:102F6000DC018D91019080190110D9F3990B08951E
:102F7000DC01CB01FC01F999FECF06C0F2BDE1BD39
:102F8000F89A319600B40D9241505040B8F7089528
:102F9000DC01CB0103C02D910E94D317415050405A
:102FA000D0F70895262FF999FECF1FBA92BD81BDA3
:102FB00020BD0FB6F894FA9AF99A0FBE01960895BB
:042FC000F894FFCFB3
:102FC400230180000000000000D003424257424128
:102FD40041413133303548323332303132340000FC
:102FE4000087636F6E6669672E7468726F74746CA1
:102FF400655F6D696E5F7261775F636F756E747321
:1030040000636F6E6669672E7468726F74746C65A2
:103014005F6D61785F7261775F636F756E74730063
:103024007468726F74746C655F6661756C745F72DA
:10303400617700636F6E6669672E7468726F74746B
:103044006C655F706F735F6761696E00636F6E6656
:1030540069672E7468726F74746C655F70776D5FE6
:103064006761696E00636F6E6669672E637572725D
:10307400656E745F72616D705F7261746500636F19
:103084006E6669672E70776D5F66696C7465720031
:103094006D6F746F725F6F76657273706565645F70
:1030A4007468726573686F6C6400636F6E666967D9
:1030B4002E6D6F746F725F6F735F667400636F6EF3
:1030C4006669672E6D6F746F725F6F735F647400EF
:1030D400636F6E6669672E70776D5F646561647A8D
:1030E4006F6E6500636F6E6669672E6D6F746F72C5
:1030F4005F73635F616D707300636F6E6669672EE3
:10310400626174746572795F616D70735F6C696D0F
:103114006974007274645F706572696F64007270C0
:103124000063757272656E740070776D002202FD23
:10313400050000FF034102FF050000FF03600201D8
:10314400060000FFFF730203060000FFFF8C020568
:10315400060000FFFFA50207060000FFFFBE020BEA
:103164000600000700D0020D060000FFFFEA020F70
:103174000600000F27FD0211060000630010031370
:10318400060000FFFF240319060000FFFF390315A2
:10319400060000FFFF53030906000030755E0309B3
:1031A40006000030756103BC04000000006903BE22
:1031B400040000E803000000000000000069646CE3
:1031C40065007265737461727400757074696D65FD
:1031D40000766F6C747300FD03DF0E0000FFFF02C6
:1031E40004DC0E000000000A04A00E000000001120
:1031F400049D0E0000FFFF000000000000000025F9
:103204006300200025732069732025642E0A00566C
:10321400616C7565202564206F7574206F6620725B
:10322400616E676520666F72207661726961626C97
:103234006520272573272E0A005468726F74746CF6
:10324400652072616E67652025642E2E25642C200E
:103254006761696E2025642C206C6F775F666169F5
:103264006C2025642068696768206661696C202584
:06327400642E0D0A0000AB
:00000001FF
